:100000000C9439010C940B070C94E0060C94B50683
:100010000C948A060C945F060C9434060C94090622
:100020000C94DE050C946A010C946A010C946A012C
:100030000C946A010C946A010C946A010C946A0194
:100040000C946A010C946A010C946A010C946A0184
:100050000C946A010C946A010C946A010C94940546
:100060000C946A010C945E050C9434050C946A019E
:100070000C946A010C946A010C946A010C946A0154
:100080000C946A010C946A010C946A010C946A0144
:100090000C946A010C946A010C946A010C946A0134
:1000A0000C946A010C946A010C946A010C946A0124
:1000B0000C946A010C946A010C946A010C946A0114
:1000C0000C946A010C946A010C946A010C946A0104
:1000D0000C946A010C946A010C946A010C946A01F4
:1000E0000C946A010C94C8020C94FF020C94030354
:1000F0000C9402020C94DD020C94CA010C94D00200
:100100000C94E3020C944F020C94F1020C94A8019D
:100110000C94F5020C94F9020C9460090C94E7021B
:100120000C94D9020C9430030C94BE020C94EB0294
:100130000C9499010C94EF030C94BC010C94D30221
:100140000C94FE020C94CC020C94C4020C946C012E
:1001500000002100240027002A002D003000330079
:1001600001010000040107010A010000220025002E
:1001700028002B002E003100340002010000050190
:1001800008010B0100000A0B02090C0D0E08070301
:10019000040100000000000000000000000000005A
:1001A000000000000000000000000000000000004F
:1001B000121110000000000000000000000000000C
:1001C00000000000000000000000000020002300EC
:1001D000260029002C002F0032000001000003013E
:1001E00006010901050505050705080808080202BA
:1001F00002020A0A080804040404010101010101C1
:1002000001010303030303030303040707070C0CA3
:100210000C0C0C0C0C0C020202020606060606066A
:1002200006060B0B0B0B0B0B0B0B0102102020080F
:100230000810204010204080020102010804020141
:1002400001020408102040808040201008040201B0
:100250008004020180402010080402010804020109
:100260000102040810204080010204081020408090
:10027000600911241FBECFEFD1E2DEBFCDBF00E089
:100280000CBF23E0A0EBB2E001C01D92A536B2077F
:10029000E1F712E0A0E0B2E0ECEBF9E100E00BBF27
:1002A00002C007900D92A03BB107D9F711E0C9E356
:1002B000D1E000E006C021970109802FFE010E94D5
:1002C000BE0AC833D10780E00807A9F70E947B0760
:1002D0000C94DC0C0C940000AF92BF92CF92DF9292
:1002E000EF92FF920F931F93CF93DF936C017B01EB
:1002F0008B01040F151FEB015E01AE18BF08C0177C
:10030000D10759F06991D601ED91FC910190F081EE
:10031000E02DC6011995892B79F7C501DF91CF91A1
:100320001F910F91FF90EF90DF90CF90BF90AF9013
:100330000895FC01538D448D252F30E0842F90E0EB
:10034000821B930B541710F0CF96089501970895D0
:10035000FC01918D828D981761F0A28DAE0FBF2F99
:10036000B11D5D968C91928D9F5F9F73928F90E0EF
:1003700008958FEF9FEF0895FC01918D828D98175E
:1003800031F0828DE80FF11D858D90E008958FEF9B
:100390009FEF0895FC01918D228D892F90E0805C64
:1003A0009F4F821B91098F739927089584EC92E0E7
:1003B0000E94CA0121E0892B09F420E0822F0895D0
:1003C000FC01A48DA80FB92FB11DA35ABF4F2C91CA
:1003D000848D90E001968F739927848FA689B789C1
:1003E0002C93A089B1898C91837080648C93938DB8
:1003F000848D981306C00288F389E02D80818F7D5B
:1004000080830895EF92FF920F931F93CF93DF9312
:10041000EC0181E0888F9B8D8C8D98131AC0E88940
:10042000F989808185FF15C09FB7F894EE89FF890F
:100430006083E889F98980818370806480839FBFAD
:1004400081E090E0DF91CF911F910F91FF90EF90AD
:100450000895F62E0B8D10E00F5F1F4F0F731127BD
:10046000E02E8C8D8E110CC00FB607FCFACFE889F8
:10047000F989808185FFF5CFCE010E94E001F1CF9F
:10048000EB8DEC0FFD2FF11DE35AFF4FF0829FB76C
:10049000F8940B8FEA89FB8980818062CFCFCF935C
:1004A000DF93EC01888D8823B9F0AA89BB89E8899C
:1004B000F9898C9185FD03C0808186FD0DC00FB642
:1004C00007FCF7CF8C9185FFF2CF808185FFEDCFC0
:1004D000CE010E94E001E9CFDF91CF91089580E045
:1004E00090E0892B29F00E94D60181110E94000022
:1004F00080E090E0892B49F080E090E0892B29F0A2
:100500000E94000081110E94000080E090E0892B91
:1005100049F080E090E0892B29F00E9400008111D1
:100520000E94000080E090E0892B49F080E090E09C
:10053000892B29F00E94000081110C94000008957D
:100540008150823108F05AC0E82FF0E08827E45546
:10055000FD4F8F4F0C94BE0ACC02D002BE02C402E3
:10056000C802FE02D302D902DD02E302E702EB0277
:10057000F102F502FE02F902FF02030380918000FE
:100580008F77809380000895809180008F7DF9CFD0
:1005900080918000877FF5CF84B58F7784BD0895E3
:1005A00084B58F7DFBCF8091B0008F778093B000B2
:1005B00008958091B0008F7DF9CF809190008F7762
:1005C000809390000895809190008F7DF9CF809165
:1005D0009000877FF5CF8091A0008F778093A00057
:1005E00008958091A0008F7DF9CF8091A000877F32
:1005F000F5CF809120018F7780932001089580911D
:1006000020018F7DF9CF80912001877FF5CFCF9397
:10061000DF93282F30E0F901EC57FE4F8491F90168
:10062000E65DFD4FD491F901EC51FE4FC491CC230E
:10063000A1F081110E94A002EC2FF0E0EE0FFF1F4D
:10064000E653FE4FA591B491EC91ED2381E090E04B
:1006500009F480E0DF91CF91089580E090E0FACF37
:1006600082E00E940703892B19F481E08093B9028C
:1006700008951F93CF93DF93282F30E0F901EC57B3
:10068000FE4F8491F901E65DFD4FD491F901EC51E3
:10069000FE4FC491CC23A9F0162F81110E94A00215
:1006A000EC2FF0E0EE0FFF1FE659FE4FA591B4913D
:1006B0008FB7F894EC91111108C0D095DE23DC932C
:1006C0008FBFDF91CF911F910895DE2BF8CFCF938D
:1006D000DF9390E0FC01E65DFD4F24918C519E4F2D
:1006E000FC0184918823D1F090E0880F991FFC01D0
:1006F000E05BFE4FA591B491FC01E659FE4FC59118
:10070000D49161110EC09FB7F8948C91E22FE095BF
:100710008E238C932881E223E8839FBFDF91CF91C2
:1007200008958FB7F894EC91E22BEC938FBFF6CF3E
:100730003FB7F8948091B5029091B602A091B702AC
:10074000B091B80226B5A89B05C02F3F19F00196BD
:10075000A11DB11D3FBFBA2FA92F982F8827BC011B
:10076000CD01620F711D811D911D42E0660F771F43
:10077000881F991F4A95D1F708958F929F92AF9243
:10078000BF92CF92DF92EF92FF924B015C010E94E9
:1007900098036B017C010E9498036C197D098E09F6
:1007A0009F09683E734081059105A8F321E0821AF4
:1007B0009108A108B10888EEC80E83E0D81EE11C9C
:1007C000F11C81149104A104B10429F7FF90EF906A
:1007D000DF90CF90BF90AF909F908F900895089535
:1007E00042E050E068E272E084EC92E00C946C012C
:1007F000CF93DF93FC01448155816081718184EC4A
:1008000092E00E946C01EC010E94F0038C0F9D1F8E
:10081000DF91CF910895CF93DF93FC0101900020E9
:10082000E9F73197AF01481B590BBC0184EC92E00A
:100830000E946C01EC010E94F0038C0F9D1FDF9160
:10084000CF9108950F931F93CF93DF93EC0188818D
:100850009981009759F02A813B812617370730F09C
:1008600081E0DF91CF911F910F9108958B016F5F10
:100870007F4F0E94EB0B009759F0998388831B836D
:100880000A832C813D81232B59F7FC011082E8CF8C
:1008900080E0E7CFCF93DF93EC01888199810097C7
:1008A00011F00E94620B198218821D821C821B8229
:1008B0001A82DF91CF910895FC0180819181009788
:1008C00011F00C94620B0895EF92FF920F931F9317
:1008D000CF93DF93EC017B01198218821B821A826D
:1008E0001D821C82FB0101900020E9F731978F01E6
:1008F000061B170BB8010E942204811109C0CE010A
:10090000DF91CF911F910F91FF90EF900C944A04CB
:100910001D830C83B70188819981DF91CF911F914D
:100920000F91FF90EF900C94D50CCF92DF92EF9245
:10093000FF920F931F93CF93DF9300D000D0CDB7DA
:10094000DEB78C017B018BE292E00E940B0464E62F
:1009500070E080E090E00E94BD038EE292E00E9491
:100960000B0464E670E080E090E00E94BD0368E361
:1009700072E0CE0101960E946404F801C080D1802B
:10098000C114D10409F45EC004811581011511055B
:10099000B9F08D819E81080F191FB801CE01019613
:1009A0000E942204882309F44DC029813A818D8157
:1009B0009E81B601820F931F0E94D50C1E830D836A
:1009C0000D811E810E5F1F4FB801CE0101960E945E
:1009D000220481113CC0CE0101960E944A04CE013E
:1009E00001960E94F803CE0101960E945C0464E621
:1009F00070E080E090E00E94BD03C7010E94F80310
:100A000064E670E080E090E00E94BD036AE184EC5F
:100A100092E00E9402020E94F00360EB74E080E02A
:100A200090E00E94BD0326960FB6F894DEBF0FBE7D
:100A3000CDBFDF91CF911F910F91FF90EF90DF908D
:100A4000CF900895CE0101960E944A04B9CF298122
:100A50003A818D819E8165E472E0820F931F0E942E
:100A6000D50C1E830D83BBCF1F920F920FB60F9232
:100A700011240BB60F922F933F934F935F936F9375
:100A80007F938F939F93AF93BF93EF93FF9384ECE8
:100A900092E00E94E001FF91EF91BF91AF919F9191
:100AA0008F917F916F915F914F913F912F910F9017
:100AB0000BBE0F900FBE0F901F9018951F920F92B4
:100AC0000FB60F9211240BB60F922F938F939F9313
:100AD000EF93FF93E091D402F091D5028081E091F1
:100AE000DA02F091DB0282FD1DC090818091DD026F
:100AF0008F5F8F732091DE02821741F0E091DD025B
:100B0000F0E0EC53FD4F958F8093DD02FF91EF9164
:100B10009F918F912F910F900BBE0F900FBE0F9052
:100B20001F9018958081F2CF1F920F920FB60F92EF
:100B300011242F933F938F939F93AF93BF938091F3
:100B4000B1029091B202A091B302B091B40230917F
:100B5000B00223E0230F2D3758F50196A11DB11DDA
:100B60002093B0028093B1029093B202A093B3029B
:100B7000B093B4028091B5029091B602A091B702F1
:100B8000B091B8020196A11DB11D8093B50290935A
:100B9000B602A093B702B093B802BF91AF919F91F4
:100BA0008F913F912F910F900FBE0F901F9018952E
:100BB00026E8230F0296A11DB11DD2CF1F920F92DE
:100BC0000FB60F9211240BB60F922F933F934F93B2
:100BD0005F936F937F938F939F93AF93BF93EF93A5
:100BE000FF93E0910E02F0910F021995FF91EF91A2
:100BF000BF91AF919F918F917F916F915F914F9135
:100C00003F912F910F900BBE0F900FBE0F901F9032
:100C100018951F920F920FB60F9211240BB60F92D8
:100C20002F933F934F935F936F937F938F939F93F4
:100C3000AF93BF93EF93FF93E0910C02F0910D02FD
:100C40001995FF91EF91BF91AF919F918F917F91F6
:100C50006F915F914F913F912F910F900BBE0F902D
:100C60000FBE0F901F9018951F920F920FB60F9204
:100C700011240BB60F922F933F934F935F936F9373
:100C80007F938F939F93AF93BF93EF93FF93E091E5
:100C90000202F09103021995FF91EF91BF91AF917C
:100CA0009F918F917F916F915F914F913F912F9184
:100CB0000F900BBE0F900FBE0F901F9018951F92B4
:100CC0000F920FB60F9211240BB60F922F933F93F2
:100CD0004F935F936F937F938F939F93AF93BF9344
:100CE000EF93FF93E0910002F09101021995FF91BB
:100CF000EF91BF91AF919F918F917F916F915F9194
:100D00004F913F912F910F900BBE0F900FBE0F9000
:100D10001F9018951F920F920FB60F9211240BB6C9
:100D20000F922F933F934F935F936F937F938F9384
:100D30009F93AF93BF93EF93FF93E0910A02F091DB
:100D40000B021995FF91EF91BF91AF919F918F91F8
:100D50007F916F915F914F913F912F910F900BBEBB
:100D60000F900FBE0F901F9018951F920F920FB605
:100D70000F9211240BB60F922F933F934F935F93D3
:100D80006F937F938F939F93AF93BF93EF93FF9353
:100D9000E0910802F09109021995FF91EF91BF913E
:100DA000AF919F918F917F916F915F914F913F9103
:100DB0002F910F900BBE0F900FBE0F901F901895A4
:100DC0001F920F920FB60F9211240BB60F922F9312
:100DD0003F934F935F936F937F938F939F93AF93C3
:100DE000BF93EF93FF93E0910602F09107021995EC
:100DF000FF91EF91BF91AF919F918F917F916F91F3
:100E00005F914F913F912F910F900BBE0F900FBEAE
:100E10000F901F9018951F920F920FB60F921124EA
:100E20000BB60F922F933F934F935F936F937F93E4
:100E30008F939F93AF93BF93EF93FF93E09104023F
:100E4000F09105021995FF91EF91BF91AF919F919C
:100E50008F917F916F915F914F913F912F910F9063
:100E60000BBE0F900FBE0F901F901895CF92DF9280
:100E7000EF92FF920F931F93E82FF92F05C00150B7
:100E800011092109310961F1908196239417B9F371
:100E900005C0015011092109310911F190819623F2
:100EA0009413F7CFC12CD12CE12CF12C0AC08FEF79
:100EB000C81AD80AE80AF80A0C151D052E053F05C0
:100EC00079F080818623841791F36C2D7D2D8E2DF2
:100ED0009F2D1F910F91FF90EF90DF90CF9008957D
:100EE00060E070E080E090E01F910F91FF90EF9044
:100EF000DF90CF900895CF93DF93CDB7DEB72C97D7
:100F00000FB6F894DEBF0FBECDBF789484B5826073
:100F100084BD84B5816084BD85B5826085BD85B59D
:100F2000816085BD80916E00816080936E0010921B
:100F30008100809181008260809381008091810096
:100F40008160809381008091800081608093800027
:100F50008091B10084608093B1008091B000816085
:100F60008093B00080919100826080939100809185
:100F700091008160809391008091900081608093C6
:100F800090008091A10082608093A1008091A100D7
:100F900081608093A1008091A00081608093A00077
:100FA00080912101826080932101809121018160E3
:100FB00080932101809120018160809320018091A4
:100FC0007A00846080937A0080917A0082608093B6
:100FD0007A0080917A00816080937A0080917A0013
:100FE000806880937A001092C100E091D402F09161
:100FF000D50282E08083E091D002F091D10210828C
:10100000E091D202F091D3028FEC80831092DC0247
:10101000E091D802F091D90286E08083E091D60277
:10102000F091D702808180618083E091D602F091B7
:10103000D702808188608083E091D602F091D70248
:10104000808180688083E091D602F091D702808110
:101050008F7D808360E084E00E94670360E085E02C
:101060000E94670360E086E00E94670360E087E01B
:101070000E94670360E082E00E94670360E089E00D
:101080000E94670361E088E00E94670361E083E0FB
:101090000E94670380E393E0909301028093000233
:1010A00080916A008C7F826080936A00EC9A93E35F
:1010B000E92E92E0F92E2DEEC22E21E0D22E60E034
:1010C00083E00E94390360E088E00E9439036AE00F
:1010D00070E080E090E00E94BD0361E088E00E9443
:1010E00039036AE070E080E090E00E94BD0360E0B8
:1010F00088E00E943903F7016491F6018491E82F9A
:10110000F0E0EE0FFF1FE653FE4F8591949100E44F
:1011100012E42FE030E0462F0E943607611571057A
:101120008105910529F06F5F7F4F8F4F9F4F9F7013
:10113000072E000C880B990B0E948F0926E933E4D7
:101140004BE05DE30E94CA0920E030E040E05FE34D
:101150000E94CA090E94880A5B017093C3026093CF
:10116000C20284E00E9407038C019093C102809325
:10117000C00285E00E9407039093BF028093BE02E5
:1011800086E00E9407039093BD028093BC0287E033
:101190000E9407039093BB028093BA02F5E0AF165A
:1011A000B10450F461E083E00E94390368EE73E01B
:1011B00080E090E00E94BD03012B71F461E083E0C8
:1011C0000E94390388E492E00E940B0468EE73E009
:1011D00080E090E00E94BD038091BE029091BF022A
:1011E000892BF9F461E083E00E9439036AE572E03B
:1011F000CE0101960E94640468E672E0CE01079673
:101200000E946404BE016F5F7F4FCE0107960E946B
:101210009504CE0107960E945C04CE0101960E94BF
:101220005C048091BA029091BB020197D9F463E704
:1012300072E0CE0101960E94640468E672E0CE017D
:1012400007960E946404BE016F5F7F4FCE01079630
:101250000E949504CE0107960E945C04CE0101967F
:101260000E945C048091BC029091BD02892B21F404
:101270008FE892E00E940B048091B9028823E9F084
:1012800068E972E0CE0101960E94640468E672E0AB
:10129000CE0107960E946404BE016F5F7F4FCE01AE
:1012A00007960E949504CE0107960E945C04CE0129
:1012B00001960E945C041092B9020E946F02FFCE58
:1012C000E4ECF2E01382128288EE93E0A0E0B0E05A
:1012D00084839583A683B7838AE192E09183808398
:1012E00085EC90E09587848784EC90E097878687EB
:1012F00080EC90E0918B808B81EC90E0938B828BE3
:1013000082EC90E0958B848B86EC90E0978B868BBB
:10131000118E128E138E148E0895E89409C097FBD7
:101320003EF490958095709561957F4F8F4F9F4FBC
:101330009923A9F0F92F96E9BB279395F695879500
:1013400077956795B795F111F8CFFAF4BB0F11F4C3
:1013500060FF1BC06F5F7F4F8F4F9F4F16C088236A
:1013600011F096E911C0772321F09EE8872F762FA0
:1013700005C0662371F096E8862F70E060E02AF0E1
:101380009A95660F771F881FDAF7880F96958795CD
:1013900097F908950E94DD090C944E0A0E94400AB4
:1013A00038F00E94470A20F0952311F00C94370A78
:1013B0000C943D0A11240C94820A0E945F0A70F377
:1013C000959FC1F3950F50E0551F629FF001729FEA
:1013D000BB27F00DB11D639FAA27F00DB11DAA1FF9
:1013E000649F6627B00DA11D661F829F2227B00D46
:1013F000A11D621F739FB00DA11D621F839FA00DD1
:10140000611D221F749F3327A00D611D231F849F20
:10141000600D211D822F762F6A2F11249F57504077
:101420009AF0F1F088234AF0EE0FFF1FBB1F661FF2
:10143000771F881F91505040A9F79E3F510580F0BB
:101440000C94370A0C94820A5F3FE4F3983ED4F37D
:10145000869577956795B795F795E7959F5FC1F75F
:10146000FE2B880F911D9695879597F9089597F90A
:101470009F6780E870E060E008959FEF80EC08953A
:1014800000240A9416161706180609060895002463
:101490000A9412161306140605060895092E0394DD
:1014A000000C11F4882352F0BB0F40F4BF2B11F451
:1014B00060FF04C06F5F7F4F8F4F9F4F089557FDB0
:1014C0009058440F551F59F05F3F71F04795880FB2
:1014D00097FB991F61F09F3F79F087950895121649
:1014E00013061406551FF2CF4695F1DF08C01616F5
:1014F00017061806991FF1CF8695710561050894A6
:101500000895E894BB2766277727CB0197F90895BC
:101510000E948F0A6894B1110C94820A08950E9467
:10152000670A88F09F5798F0B92F9927B751B0F004
:10153000E1F0660F771F881F991F1AF0BA95C9F757
:1015400014C0B13091F00E94810AB1E008950C946A
:10155000810A672F782F8827B85F39F0B93FCCF31D
:10156000869577956795B395D9F73EF490958095D4
:10157000709561957F4F8F4F9F4F0895EE0FFF1F1E
:10158000881F8BBF0790F691E02D19940F931F933E
:10159000CF93DF938230910510F482E090E0E091E8
:1015A0006303F091640330E020E0B0E0A0E0309706
:1015B00099F42115310509F44AC0281B390B243050
:1015C0003105D8F58A819B816115710589F1FB018F
:1015D00093838283FE0111C0408151810281138176
:1015E00048175907E0F04817590799F4109761F028
:1015F00012960C93129713961C933296CF01DF919B
:10160000CF911F910F91089500936303109364038A
:10161000F4CF2115310551F04217530738F0A901D5
:10162000DB019A01BD01DF01F801C1CFEF01F9CF64
:101630009093640380936303CDCFFE01E20FF31F09
:10164000819391932250310939832883D7CF2091F8
:10165000610330916203232B41F4209112023091F7
:1016600013023093620320936103209110023091A2
:1016700011022115310541F42DB73EB740911402F6
:1016800050911502241B350BE0916103F091620328
:10169000E217F307A0F42E1B3F0B2817390778F049
:1016A000AC014E5F5F4F2417350748F04E0F5F1FA8
:1016B0005093620340936103819391939FCFF0E035
:1016C000E0E09CCFCF93DF930097E9F0FC013297E5
:1016D00013821282A0916303B0916403ED0130E0A4
:1016E00020E01097A1F420813181820F931F209177
:1016F0006103309162032817390709F061C0F09344
:101700006203E0936103DF91CF910895EA01CE1760
:10171000DF07E8F54A815B819E0141155105B1F76C
:10172000E901FB83EA8349915991C40FD51FEC1756
:10173000FD0761F4808191810296840F951FE90174
:1017400099838883828193819B838A83F0E0E0E0A0
:1017500012968D919C9113970097B9F52D913C911C
:101760001197CD010296820F931F20916103309152
:1017700062032817390739F6309751F51092640340
:1017800010926303B0936203A0936103BCCFD38331
:10179000C28340815181840F951FC817D90761F416
:1017A0004E5F5F4F88819981480F591F5183408355
:1017B0008A819B81938382832115310509F0B0CF03
:1017C000F0936403E09363039ECFFD01DC01C0CF7F
:1017D00013821282D7CF4F925F926F927F928F9235
:1017E0009F92AF92BF92CF92DF92EF92FF920F93B0
:1017F0001F93CF93DF938C01009799F4CB01DF9176
:10180000CF911F910F91FF90EF90DF90CF90BF90FD
:10181000AF909F908F907F906F905F904F900C94BF
:10182000C60AFC01E60FF71F9C0122503109E2179E
:10183000F30708F4AEC0D901CD91DC911197C6171A
:10184000D70720F1C530D10578F0CE01049786176F
:10185000970750F0C61BD70B2297C193D1936D9376
:101860007C93CF010E94620BC801DF91CF911F9141
:101870000F91FF90EF90DF90CF90BF90AF909F902F
:101880008F907F906F905F904F9008955B01AC1A9E
:10189000BD0A4C018C0E9D1EA0916303B0916403A0
:1018A000512C412CF12CE12C109731F580916103E2
:1018B000909162038815990509F05CC04616570699
:1018C00008F058C08091100290911102009741F4E5
:1018D0008DB79EB74091140250911502841B950B51
:1018E000E817F90708F055C0F0936203E09361032D
:1018F000F90171836083B8CF8D919C9111971296F5
:101900006C90129713967C901397A815B90559F50A
:101910006C0142E0C40ED11CCA14DB0420F1AC01FE
:101920004A195B09DA011296159780F06282738278
:1019300051834083D9016D937C93E114F10471F0DC
:10194000D7011396FC93EE9312978ECF22968C0FAD
:101950009D1FF90191838083F301EFCFF09364031E
:10196000E093630381CF4816590608F42C017D01EA
:10197000D3019ACFCB010E94C60A7C01009749F09F
:10198000AE01B8010E94CC0CC8010E94620B870115
:101990006BCF10E000E068CFFB01DC0102C00190DA
:1019A0000D9241505040D8F70895FB01DC010190A1
:0C19B0000D920020E1F70895F894FFCF9D
:1019BC00EF03EF03EF03EF03EF03EF03EF03EF038B
:1019CC000000650380000000000002026C01990118
:1019DC004F02CA01A801BC010D0A00415400415438
:1019EC002B434D47463D310041542B434D47533D0E
:1019FC00222B393100220D004F42535441434C45A8
:101A0C0020444554454354454400464952452044DE
:101A1C004554454354454400393536363938373604
:101A2C003130004920414D20415420454D4552470D
:101A3C00454E435920534954554154494F4E004447
:101A4C0041592054494D4500424C494E4420504583
:101A5C0052534F4E2046454C4C20444F574E00009D
:00000001FF
